{
  "_format": "hh-sol-artifact-1",
  "contractName": "MemeOrNot",
  "sourceName": "contracts/MemeOrNot.sol",
  "abi": [
    {
      "anonymous": false,
      "inputs": [
        {
          "indexed": true,
          "internalType": "uint256",
          "name": "marketId",
          "type": "uint256"
        },
        {
          "indexed": true,
          "internalType": "address",
          "name": "creator",
          "type": "address"
        },
        {
          "indexed": false,
          "internalType": "string",
          "name": "bucketName",
          "type": "string"
        },
        {
          "indexed": false,
          "internalType": "string",
          "name": "metadata",
          "type": "string"
        },
        {
          "indexed": false,
          "internalType": "string",
          "name": "fileName",
          "type": "string"
        },
        {
          "indexed": false,
          "internalType": "uint256",
          "name": "endTime",
          "type": "uint256"
        }
      ],
      "name": "MarketCreated",
      "type": "event"
    },
    {
      "anonymous": false,
      "inputs": [
        {
          "indexed": true,
          "internalType": "uint256",
          "name": "marketId",
          "type": "uint256"
        },
        {
          "indexed": true,
          "internalType": "address",
          "name": "creator",
          "type": "address"
        },
        {
          "indexed": false,
          "internalType": "uint256",
          "name": "creatorReward",
          "type": "uint256"
        }
      ],
      "name": "RewardsDistributed",
      "type": "event"
    },
    {
      "anonymous": false,
      "inputs": [
        {
          "indexed": true,
          "internalType": "uint256",
          "name": "marketId",
          "type": "uint256"
        },
        {
          "indexed": true,
          "internalType": "address",
          "name": "voter",
          "type": "address"
        },
        {
          "indexed": false,
          "internalType": "bool",
          "name": "vote",
          "type": "bool"
        }
      ],
      "name": "VoteCast",
      "type": "event"
    },
    {
      "inputs": [
        {
          "internalType": "string",
          "name": "metadata",
          "type": "string"
        },
        {
          "internalType": "string",
          "name": "bucketName",
          "type": "string"
        },
        {
          "internalType": "string",
          "name": "fileName",
          "type": "string"
        }
      ],
      "name": "createMarket",
      "outputs": [],
      "stateMutability": "nonpayable",
      "type": "function"
    },
    {
      "inputs": [],
      "name": "creatorRewardPercentage",
      "outputs": [
        {
          "internalType": "uint256",
          "name": "",
          "type": "uint256"
        }
      ],
      "stateMutability": "view",
      "type": "function"
    },
    {
      "inputs": [
        {
          "internalType": "uint256",
          "name": "marketId",
          "type": "uint256"
        }
      ],
      "name": "getMarket",
      "outputs": [
        {
          "internalType": "address",
          "name": "creator",
          "type": "address"
        },
        {
          "internalType": "uint256",
          "name": "endTime",
          "type": "uint256"
        },
        {
          "internalType": "uint256",
          "name": "yesVotes",
          "type": "uint256"
        },
        {
          "internalType": "uint256",
          "name": "noVotes",
          "type": "uint256"
        },
        {
          "internalType": "uint256",
          "name": "totalStaked",
          "type": "uint256"
        },
        {
          "internalType": "bool",
          "name": "isActive",
          "type": "bool"
        },
        {
          "internalType": "string",
          "name": "bucketName",
          "type": "string"
        },
        {
          "internalType": "string",
          "name": "metadata",
          "type": "string"
        },
        {
          "internalType": "string",
          "name": "fileName",
          "type": "string"
        }
      ],
      "stateMutability": "view",
      "type": "function"
    },
    {
      "inputs": [],
      "name": "getMarketCount",
      "outputs": [
        {
          "internalType": "uint256",
          "name": "",
          "type": "uint256"
        }
      ],
      "stateMutability": "view",
      "type": "function"
    },
    {
      "inputs": [],
      "name": "marketCount",
      "outputs": [
        {
          "internalType": "uint256",
          "name": "",
          "type": "uint256"
        }
      ],
      "stateMutability": "view",
      "type": "function"
    },
    {
      "inputs": [
        {
          "internalType": "uint256",
          "name": "",
          "type": "uint256"
        }
      ],
      "name": "markets",
      "outputs": [
        {
          "internalType": "address",
          "name": "creator",
          "type": "address"
        },
        {
          "internalType": "uint256",
          "name": "endTime",
          "type": "uint256"
        },
        {
          "internalType": "uint256",
          "name": "creatorFee",
          "type": "uint256"
        },
        {
          "internalType": "uint256",
          "name": "yesVotes",
          "type": "uint256"
        },
        {
          "internalType": "uint256",
          "name": "noVotes",
          "type": "uint256"
        },
        {
          "internalType": "uint256",
          "name": "totalStaked",
          "type": "uint256"
        },
        {
          "internalType": "bool",
          "name": "isActive",
          "type": "bool"
        },
        {
          "internalType": "string",
          "name": "bucketName",
          "type": "string"
        },
        {
          "internalType": "string",
          "name": "metadata",
          "type": "string"
        },
        {
          "internalType": "string",
          "name": "fileName",
          "type": "string"
        }
      ],
      "stateMutability": "view",
      "type": "function"
    },
    {
      "inputs": [
        {
          "internalType": "uint256",
          "name": "marketId",
          "type": "uint256"
        }
      ],
      "name": "releaseRewards",
      "outputs": [],
      "stateMutability": "nonpayable",
      "type": "function"
    },
    {
      "inputs": [
        {
          "internalType": "address",
          "name": "userAddress",
          "type": "address"
        },
        {
          "internalType": "uint256",
          "name": "marketId",
          "type": "uint256"
        },
        {
          "internalType": "bool",
          "name": "voteYes",
          "type": "bool"
        }
      ],
      "name": "vote",
      "outputs": [],
      "stateMutability": "payable",
      "type": "function"
    },
    {
      "inputs": [],
      "name": "voteCost",
      "outputs": [
        {
          "internalType": "uint256",
          "name": "",
          "type": "uint256"
        }
      ],
      "stateMutability": "view",
      "type": "function"
    }
  ],
  "bytecode": "0x608060405266038d7ea4c680006002556005600355348015601f57600080fd5b50611c4a8061002f6000396000f3fe6080604052600436106100865760003560e01c8063e1a0257711610059578063e1a0257714610150578063eb44fdd31461016c578063ec979082146101b1578063f8703bb8146101dc578063fd69f3c21461020557610086565b80634c1b8ffd1461008b578063b1283e77146100b6578063ce52682f146100fc578063d96860ad14610127575b600080fd5b34801561009757600080fd5b506100a0610230565b6040516100ad9190610f3b565b60405180910390f35b3480156100c257600080fd5b506100dd60048036038101906100d89190610f96565b610236565b6040516100f39a999897969594939291906110af565b60405180910390f35b34801561010857600080fd5b5061011161044f565b60405161011e9190610f3b565b60405180910390f35b34801561013357600080fd5b5061014e60048036038101906101499190611295565b610455565b005b61016a60048036038101906101659190611394565b610593565b005b34801561017857600080fd5b50610193600480360381019061018e9190610f96565b610943565b6040516101a8999897969594939291906113e7565b60405180910390f35b3480156101bd57600080fd5b506101c6610bc9565b6040516101d39190610f3b565b60405180910390f35b3480156101e857600080fd5b5061020360048036038101906101fe9190610f96565b610bcf565b005b34801561021157600080fd5b5061021a610f19565b6040516102279190610f3b565b60405180910390f35b60025481565b60016020528060005260406000206000915090508060000160009054906101000a900473ffffffffffffffffffffffffffffffffffffffff16908060010154908060020154908060030154908060040154908060050154908060060160009054906101000a900460ff16908060070180546102b0906114b8565b80601f01602080910402602001604051908101604052809291908181526020018280546102dc906114b8565b80156103295780601f106102fe57610100808354040283529160200191610329565b820191906000526020600020905b81548152906001019060200180831161030c57829003601f168201915b50505050509080600801805461033e906114b8565b80601f016020809104026020016040519081016040528092919081815260200182805461036a906114b8565b80156103b75780601f1061038c576101008083540402835291602001916103b7565b820191906000526020600020905b81548152906001019060200180831161039a57829003601f168201915b5050505050908060090180546103cc906114b8565b80601f01602080910402602001604051908101604052809291908181526020018280546103f8906114b8565b80156104455780601f1061041a57610100808354040283529160200191610445565b820191906000526020600020905b81548152906001019060200180831161042857829003601f168201915b505050505090508a565b60035481565b6000615460426104659190611518565b9050600060016000805481526020019081526020016000209050338160000160006101000a81548173ffffffffffffffffffffffffffffffffffffffff021916908373ffffffffffffffffffffffffffffffffffffffff16021790555081816001018190555060018160060160006101000a81548160ff021916908315150217905550848160080190816104f991906116f8565b508381600701908161050b91906116f8565b508281600901908161051d91906116f8565b503373ffffffffffffffffffffffffffffffffffffffff166000547f9ac923d0a73e4cf4af560484be230f8b346ff35fd3bc27c5656a74dbee33c6138688878760405161056d94939291906117ca565b60405180910390a360008081548092919061058790611824565b91905055505050505050565b8160005481106105d8576040517f08c379a00000000000000000000000000000000000000000000000000000000081526004016105cf906118b8565b60405180910390fd5b826001600082815260200190815260200160002060060160009054906101000a900460ff1661063c576040517f08c379a000000000000000000000000000000000000000000000000000000000815260040161063390611924565b60405180910390fd5b60006001600086815260200190815260200160002090506002543414610697576040517f08c379a000000000000000000000000000000000000000000000000000000000815260040161068e90611990565b60405180910390fd5b80600a0160008773ffffffffffffffffffffffffffffffffffffffff1673ffffffffffffffffffffffffffffffffffffffff16815260200190815260200160002060009054906101000a900460ff1615610726576040517f08c379a000000000000000000000000000000000000000000000000000000000815260040161071d906119fc565b60405180910390fd5b806001015442111561076d576040517f08c379a000000000000000000000000000000000000000000000000000000000815260040161076490611a68565b60405180910390fd5b600181600a0160008873ffffffffffffffffffffffffffffffffffffffff1673ffffffffffffffffffffffffffffffffffffffff16815260200190815260200160002060006101000a81548160ff021916908315150217905550348160050160008282546107db9190611518565b92505081905550831561086c578060030160008154809291906107fd90611824565b919050555080600b01869080600181540180825580915050600190039060005260206000200160009091909190916101000a81548173ffffffffffffffffffffffffffffffffffffffff021916908373ffffffffffffffffffffffffffffffffffffffff1602179055506108ec565b80600401600081548092919061088190611824565b919050555080600c01869080600181540180825580915050600190039060005260206000200160009091909190916101000a81548173ffffffffffffffffffffffffffffffffffffffff021916908373ffffffffffffffffffffffffffffffffffffffff1602179055505b8573ffffffffffffffffffffffffffffffffffffffff16857fe71fcdac32df1877c1700e7bda2a03157e20993363a28fc35ac495cefc76e4d4866040516109339190611a88565b60405180910390a3505050505050565b6000806000806000806060806060896000548110610996576040517f08c379a000000000000000000000000000000000000000000000000000000000815260040161098d906118b8565b60405180910390fd5b6000600160008d815260200190815260200160002090508060000160009054906101000a900473ffffffffffffffffffffffffffffffffffffffff1681600101548260030154836004015484600501548560060160009054906101000a900460ff16866007018760080188600901828054610a10906114b8565b80601f0160208091040260200160405190810160405280929190818152602001828054610a3c906114b8565b8015610a895780601f10610a5e57610100808354040283529160200191610a89565b820191906000526020600020905b815481529060010190602001808311610a6c57829003601f168201915b50505050509250818054610a9c906114b8565b80601f0160208091040260200160405190810160405280929190818152602001828054610ac8906114b8565b8015610b155780601f10610aea57610100808354040283529160200191610b15565b820191906000526020600020905b815481529060010190602001808311610af857829003601f168201915b50505050509150808054610b28906114b8565b80601f0160208091040260200160405190810160405280929190818152602001828054610b54906114b8565b8015610ba15780601f10610b7657610100808354040283529160200191610ba1565b820191906000526020600020905b815481529060010190602001808311610b8457829003601f168201915b505050505090509a509a509a509a509a509a509a509a509a5050509193959799909294969850565b60005481565b806000548110610c14576040517f08c379a0000000000000000000000000000000000000000000000000000000008152600401610c0b906118b8565b60405180910390fd5b816001600082815260200190815260200160002060060160009054906101000a900460ff16610c78576040517f08c379a0000000000000000000000000000000000000000000000000000000008152600401610c6f90611924565b60405180910390fd5b600060016000858152602001908152602001600020905080600101544211610cd5576040517f08c379a0000000000000000000000000000000000000000000000000000000008152600401610ccc90611aef565b60405180910390fd5b60008160060160006101000a81548160ff0219169083151502179055506000816005015490506000606460035483610d0d9190611b0f565b610d179190611b80565b905060008183610d279190611bb1565b9050600084600401548560030154119050600081610d485785600c01610d4d565b85600b015b9050600082610d60578660040154610d66565b86600301545b90506000808211610d78576000610d85565b8185610d849190611b80565b5b905060005b8380549050811015610e2d576000848281548110610dab57610daa611be5565b5b9060005260206000200160009054906101000a900473ffffffffffffffffffffffffffffffffffffffff1690508073ffffffffffffffffffffffffffffffffffffffff166108fc849081150290604051600060405180830381858888f19350505050158015610e1e573d6000803e3d6000fd5b50508080600101915050610d8a565b508760000160009054906101000a900473ffffffffffffffffffffffffffffffffffffffff1673ffffffffffffffffffffffffffffffffffffffff166108fc879081150290604051600060405180830381858888f19350505050158015610e98573d6000803e3d6000fd5b508760000160009054906101000a900473ffffffffffffffffffffffffffffffffffffffff1673ffffffffffffffffffffffffffffffffffffffff168b7f4cbfa67f54cf0255619787991cb52aa46c0d3ee5cfabb0abf659f2b310f4748588604051610f049190610f3b565b60405180910390a35050505050505050505050565b60008054905090565b6000819050919050565b610f3581610f22565b82525050565b6000602082019050610f506000830184610f2c565b92915050565b6000604051905090565b600080fd5b600080fd5b610f7381610f22565b8114610f7e57600080fd5b50565b600081359050610f9081610f6a565b92915050565b600060208284031215610fac57610fab610f60565b5b6000610fba84828501610f81565b91505092915050565b600073ffffffffffffffffffffffffffffffffffffffff82169050919050565b6000610fee82610fc3565b9050919050565b610ffe81610fe3565b82525050565b60008115159050919050565b61101981611004565b82525050565b600081519050919050565b600082825260208201905092915050565b60005b8381101561105957808201518184015260208101905061103e565b60008484015250505050565b6000601f19601f8301169050919050565b60006110818261101f565b61108b818561102a565b935061109b81856020860161103b565b6110a481611065565b840191505092915050565b6000610140820190506110c5600083018d610ff5565b6110d2602083018c610f2c565b6110df604083018b610f2c565b6110ec606083018a610f2c565b6110f96080830189610f2c565b61110660a0830188610f2c565b61111360c0830187611010565b81810360e08301526111258186611076565b905081810361010083015261113a8185611076565b905081810361012083015261114f8184611076565b90509b9a5050505050505050505050565b600080fd5b600080fd5b7f4e487b7100000000000000000000000000000000000000000000000000000000600052604160045260246000fd5b6111a282611065565b810181811067ffffffffffffffff821117156111c1576111c061116a565b5b80604052505050565b60006111d4610f56565b90506111e08282611199565b919050565b600067ffffffffffffffff821115611200576111ff61116a565b5b61120982611065565b9050602081019050919050565b82818337600083830152505050565b6000611238611233846111e5565b6111ca565b90508281526020810184848401111561125457611253611165565b5b61125f848285611216565b509392505050565b600082601f83011261127c5761127b611160565b5b813561128c848260208601611225565b91505092915050565b6000806000606084860312156112ae576112ad610f60565b5b600084013567ffffffffffffffff8111156112cc576112cb610f65565b5b6112d886828701611267565b935050602084013567ffffffffffffffff8111156112f9576112f8610f65565b5b61130586828701611267565b925050604084013567ffffffffffffffff81111561132657611325610f65565b5b61133286828701611267565b9150509250925092565b61134581610fe3565b811461135057600080fd5b50565b6000813590506113628161133c565b92915050565b61137181611004565b811461137c57600080fd5b50565b60008135905061138e81611368565b92915050565b6000806000606084860312156113ad576113ac610f60565b5b60006113bb86828701611353565b93505060206113cc86828701610f81565b92505060406113dd8682870161137f565b9150509250925092565b6000610120820190506113fd600083018c610ff5565b61140a602083018b610f2c565b611417604083018a610f2c565b6114246060830189610f2c565b6114316080830188610f2c565b61143e60a0830187611010565b81810360c08301526114508186611076565b905081810360e08301526114648185611076565b90508181036101008301526114798184611076565b90509a9950505050505050505050565b7f4e487b7100000000000000000000000000000000000000000000000000000000600052602260045260246000fd5b600060028204905060018216806114d057607f821691505b6020821081036114e3576114e2611489565b5b50919050565b7f4e487b7100000000000000000000000000000000000000000000000000000000600052601160045260246000fd5b600061152382610f22565b915061152e83610f22565b9250828201905080821115611546576115456114e9565b5b92915050565b60008190508160005260206000209050919050565b60006020601f8301049050919050565b600082821b905092915050565b6000600883026115ae7fffffffffffffffffffffffffffffffffffffffffffffffffffffffffffffffff82611571565b6115b88683611571565b95508019841693508086168417925050509392505050565b6000819050919050565b60006115f56115f06115eb84610f22565b6115d0565b610f22565b9050919050565b6000819050919050565b61160f836115da565b61162361161b826115fc565b84845461157e565b825550505050565b600090565b61163861162b565b611643818484611606565b505050565b5b818110156116675761165c600082611630565b600181019050611649565b5050565b601f8211156116ac5761167d8161154c565b61168684611561565b81016020851015611695578190505b6116a96116a185611561565b830182611648565b50505b505050565b600082821c905092915050565b60006116cf600019846008026116b1565b1980831691505092915050565b60006116e883836116be565b9150826002028217905092915050565b6117018261101f565b67ffffffffffffffff81111561171a5761171961116a565b5b61172482546114b8565b61172f82828561166b565b600060209050601f8311600181146117625760008415611750578287015190505b61175a85826116dc565b8655506117c2565b601f1984166117708661154c565b60005b8281101561179857848901518255600182019150602085019450602081019050611773565b868310156117b557848901516117b1601f8916826116be565b8355505b6001600288020188555050505b505050505050565b600060808201905081810360008301526117e48187611076565b905081810360208301526117f88186611076565b9050818103604083015261180c8185611076565b905061181b6060830184610f2c565b95945050505050565b600061182f82610f22565b91507fffffffffffffffffffffffffffffffffffffffffffffffffffffffffffffffff8203611861576118606114e9565b5b600182019050919050565b7f4d61726b657420646f6573206e6f742065786973740000000000000000000000600082015250565b60006118a260158361102a565b91506118ad8261186c565b602082019050919050565b600060208201905081810360008301526118d181611895565b9050919050565b7f4d61726b6574206973206e6f7420616374697665000000000000000000000000600082015250565b600061190e60148361102a565b9150611919826118d8565b602082019050919050565b6000602082019050818103600083015261193d81611901565b9050919050565b7f496e636f727265637420766f74696e6720666565000000000000000000000000600082015250565b600061197a60148361102a565b915061198582611944565b602082019050919050565b600060208201905081810360008301526119a98161196d565b9050919050565b7f596f75206861766520616c726561647920766f74656400000000000000000000600082015250565b60006119e660168361102a565b91506119f1826119b0565b602082019050919050565b60006020820190508181036000830152611a15816119d9565b9050919050565b7f566f74696e6720706572696f6420656e64656400000000000000000000000000600082015250565b6000611a5260138361102a565b9150611a5d82611a1c565b602082019050919050565b60006020820190508181036000830152611a8181611a45565b9050919050565b6000602082019050611a9d6000830184611010565b92915050565b7f4d61726b6574206973207374696c6c2061637469766500000000000000000000600082015250565b6000611ad960168361102a565b9150611ae482611aa3565b602082019050919050565b60006020820190508181036000830152611b0881611acc565b9050919050565b6000611b1a82610f22565b9150611b2583610f22565b9250828202611b3381610f22565b91508282048414831517611b4a57611b496114e9565b5b5092915050565b7f4e487b7100000000000000000000000000000000000000000000000000000000600052601260045260246000fd5b6000611b8b82610f22565b9150611b9683610f22565b925082611ba657611ba5611b51565b5b828204905092915050565b6000611bbc82610f22565b9150611bc783610f22565b9250828203905081811115611bdf57611bde6114e9565b5b92915050565b7f4e487b7100000000000000000000000000000000000000000000000000000000600052603260045260246000fdfea2646970667358221220d33e455ddc5a329bd49426b2949340287ba2b194abb29ae476a1f3611c100c2664736f6c634300081c0033",
  "linkReferences": {},
  "deployedLinkReferences": {}
}