{
  "_format": "hh-sol-artifact-1",
  "contractName": "MemeTrue",
  "sourceName": "contracts/MemeTrue.sol",
  "abi": [
    {
      "anonymous": false,
      "inputs": [
        {
          "indexed": true,
          "internalType": "uint256",
          "name": "marketId",
          "type": "uint256"
        },
        {
          "indexed": true,
          "internalType": "address",
          "name": "creator",
          "type": "address"
        },
        {
          "indexed": false,
          "internalType": "uint256",
          "name": "endTime",
          "type": "uint256"
        },
        {
          "indexed": false,
          "internalType": "string",
          "name": "metadata",
          "type": "string"
        }
      ],
      "name": "MarketCreated",
      "type": "event"
    },
    {
      "anonymous": false,
      "inputs": [
        {
          "indexed": true,
          "internalType": "uint256",
          "name": "marketId",
          "type": "uint256"
        },
        {
          "indexed": true,
          "internalType": "address",
          "name": "creator",
          "type": "address"
        },
        {
          "indexed": false,
          "internalType": "uint256",
          "name": "creatorReward",
          "type": "uint256"
        }
      ],
      "name": "RewardsDistributed",
      "type": "event"
    },
    {
      "anonymous": false,
      "inputs": [
        {
          "indexed": true,
          "internalType": "uint256",
          "name": "marketId",
          "type": "uint256"
        },
        {
          "indexed": true,
          "internalType": "address",
          "name": "voter",
          "type": "address"
        },
        {
          "indexed": false,
          "internalType": "bool",
          "name": "vote",
          "type": "bool"
        }
      ],
      "name": "VoteCast",
      "type": "event"
    },
    {
      "inputs": [
        {
          "internalType": "string",
          "name": "metadata",
          "type": "string"
        }
      ],
      "name": "createMarket",
      "outputs": [],
      "stateMutability": "nonpayable",
      "type": "function"
    },
    {
      "inputs": [],
      "name": "creatorRewardPercentage",
      "outputs": [
        {
          "internalType": "uint256",
          "name": "",
          "type": "uint256"
        }
      ],
      "stateMutability": "view",
      "type": "function"
    },
    {
      "inputs": [
        {
          "internalType": "uint256",
          "name": "marketId",
          "type": "uint256"
        }
      ],
      "name": "getMarket",
      "outputs": [
        {
          "internalType": "address",
          "name": "creator",
          "type": "address"
        },
        {
          "internalType": "uint256",
          "name": "endTime",
          "type": "uint256"
        },
        {
          "internalType": "uint256",
          "name": "yesVotes",
          "type": "uint256"
        },
        {
          "internalType": "uint256",
          "name": "noVotes",
          "type": "uint256"
        },
        {
          "internalType": "uint256",
          "name": "totalStaked",
          "type": "uint256"
        },
        {
          "internalType": "bool",
          "name": "isActive",
          "type": "bool"
        },
        {
          "internalType": "string",
          "name": "metadata",
          "type": "string"
        }
      ],
      "stateMutability": "view",
      "type": "function"
    },
    {
      "inputs": [],
      "name": "getMarketCount",
      "outputs": [
        {
          "internalType": "uint256",
          "name": "",
          "type": "uint256"
        }
      ],
      "stateMutability": "view",
      "type": "function"
    },
    {
      "inputs": [],
      "name": "marketCount",
      "outputs": [
        {
          "internalType": "uint256",
          "name": "",
          "type": "uint256"
        }
      ],
      "stateMutability": "view",
      "type": "function"
    },
    {
      "inputs": [
        {
          "internalType": "uint256",
          "name": "",
          "type": "uint256"
        }
      ],
      "name": "markets",
      "outputs": [
        {
          "internalType": "address",
          "name": "creator",
          "type": "address"
        },
        {
          "internalType": "uint256",
          "name": "endTime",
          "type": "uint256"
        },
        {
          "internalType": "uint256",
          "name": "creatorFee",
          "type": "uint256"
        },
        {
          "internalType": "uint256",
          "name": "yesVotes",
          "type": "uint256"
        },
        {
          "internalType": "uint256",
          "name": "noVotes",
          "type": "uint256"
        },
        {
          "internalType": "uint256",
          "name": "totalStaked",
          "type": "uint256"
        },
        {
          "internalType": "bool",
          "name": "isActive",
          "type": "bool"
        },
        {
          "internalType": "string",
          "name": "metadata",
          "type": "string"
        }
      ],
      "stateMutability": "view",
      "type": "function"
    },
    {
      "inputs": [
        {
          "internalType": "uint256",
          "name": "marketId",
          "type": "uint256"
        }
      ],
      "name": "releaseRewards",
      "outputs": [],
      "stateMutability": "nonpayable",
      "type": "function"
    },
    {
      "inputs": [
        {
          "internalType": "address",
          "name": "userAddress",
          "type": "address"
        },
        {
          "internalType": "uint256",
          "name": "marketId",
          "type": "uint256"
        },
        {
          "internalType": "bool",
          "name": "voteYes",
          "type": "bool"
        }
      ],
      "name": "vote",
      "outputs": [],
      "stateMutability": "payable",
      "type": "function"
    },
    {
      "inputs": [],
      "name": "voteCost",
      "outputs": [
        {
          "internalType": "uint256",
          "name": "",
          "type": "uint256"
        }
      ],
      "stateMutability": "view",
      "type": "function"
    }
  ],
  "bytecode": "0x608060405266038d7ea4c680006002556005600355348015601f57600080fd5b506118f78061002f6000396000f3fe6080604052600436106100865760003560e01c8063e1a0257711610059578063e1a025771461014e578063eb44fdd31461016a578063ec979082146101ad578063f8703bb8146101d8578063fd69f3c21461020157610086565b80634c1b8ffd1461008b57806354888f55146100b6578063b1283e77146100df578063ce52682f14610123575b600080fd5b34801561009757600080fd5b506100a061022c565b6040516100ad9190610cc8565b60405180910390f35b3480156100c257600080fd5b506100dd60048036038101906100d89190610e3d565b610232565b005b3480156100eb57600080fd5b5061010660048036038101906101019190610eb2565b610346565b60405161011a989796959493929190610fba565b60405180910390f35b34801561012f57600080fd5b50610138610443565b6040516101459190610cc8565b60405180910390f35b61016860048036038101906101639190611097565b610449565b005b34801561017657600080fd5b50610191600480360381019061018c9190610eb2565b6107f9565b6040516101a497969594939291906110ea565b60405180910390f35b3480156101b957600080fd5b506101c2610956565b6040516101cf9190610cc8565b60405180910390f35b3480156101e457600080fd5b506101ff60048036038101906101fa9190610eb2565b61095c565b005b34801561020d57600080fd5b50610216610ca6565b6040516102239190610cc8565b60405180910390f35b60025481565b600061546042610242919061118f565b9050600060016000805481526020019081526020016000209050338160000160006101000a81548173ffffffffffffffffffffffffffffffffffffffff021916908373ffffffffffffffffffffffffffffffffffffffff16021790555081816001018190555060018160060160006101000a81548160ff021916908315150217905550828160070190816102d691906113cf565b503373ffffffffffffffffffffffffffffffffffffffff166000547fa4d588c3d819c6ec039821807da14727a5772a15f4ccb5b5a3327c9202559d1084866040516103229291906114a1565b60405180910390a360008081548092919061033c906114d1565b9190505550505050565b60016020528060005260406000206000915090508060000160009054906101000a900473ffffffffffffffffffffffffffffffffffffffff16908060010154908060020154908060030154908060040154908060050154908060060160009054906101000a900460ff16908060070180546103c0906111f2565b80601f01602080910402602001604051908101604052809291908181526020018280546103ec906111f2565b80156104395780601f1061040e57610100808354040283529160200191610439565b820191906000526020600020905b81548152906001019060200180831161041c57829003601f168201915b5050505050905088565b60035481565b81600054811061048e576040517f08c379a000000000000000000000000000000000000000000000000000000000815260040161048590611565565b60405180910390fd5b826001600082815260200190815260200160002060060160009054906101000a900460ff166104f2576040517f08c379a00000000000000000000000000000000000000000000000000000000081526004016104e9906115d1565b60405180910390fd5b6000600160008681526020019081526020016000209050600254341461054d576040517f08c379a00000000000000000000000000000000000000000000000000000000081526004016105449061163d565b60405180910390fd5b8060080160008773ffffffffffffffffffffffffffffffffffffffff1673ffffffffffffffffffffffffffffffffffffffff16815260200190815260200160002060009054906101000a900460ff16156105dc576040517f08c379a00000000000000000000000000000000000000000000000000000000081526004016105d3906116a9565b60405180910390fd5b8060010154421115610623576040517f08c379a000000000000000000000000000000000000000000000000000000000815260040161061a90611715565b60405180910390fd5b60018160080160008873ffffffffffffffffffffffffffffffffffffffff1673ffffffffffffffffffffffffffffffffffffffff16815260200190815260200160002060006101000a81548160ff02191690831515021790555034816005016000828254610691919061118f565b925050819055508315610722578060030160008154809291906106b3906114d1565b919050555080600901869080600181540180825580915050600190039060005260206000200160009091909190916101000a81548173ffffffffffffffffffffffffffffffffffffffff021916908373ffffffffffffffffffffffffffffffffffffffff1602179055506107a2565b806004016000815480929190610737906114d1565b919050555080600a01869080600181540180825580915050600190039060005260206000200160009091909190916101000a81548173ffffffffffffffffffffffffffffffffffffffff021916908373ffffffffffffffffffffffffffffffffffffffff1602179055505b8573ffffffffffffffffffffffffffffffffffffffff16857fe71fcdac32df1877c1700e7bda2a03157e20993363a28fc35ac495cefc76e4d4866040516107e99190611735565b60405180910390a3505050505050565b6000806000806000806060876000548110610849576040517f08c379a000000000000000000000000000000000000000000000000000000000815260040161084090611565565b60405180910390fd5b6000600160008b815260200190815260200160002090508060000160009054906101000a900473ffffffffffffffffffffffffffffffffffffffff1681600101548260030154836004015484600501548560060160009054906101000a900460ff16866007018080546108bb906111f2565b80601f01602080910402602001604051908101604052809291908181526020018280546108e7906111f2565b80156109345780601f1061090957610100808354040283529160200191610934565b820191906000526020600020905b81548152906001019060200180831161091757829003601f168201915b5050505050905098509850985098509850985098505050919395979092949650565b60005481565b8060005481106109a1576040517f08c379a000000000000000000000000000000000000000000000000000000000815260040161099890611565565b60405180910390fd5b816001600082815260200190815260200160002060060160009054906101000a900460ff16610a05576040517f08c379a00000000000000000000000000000000000000000000000000000000081526004016109fc906115d1565b60405180910390fd5b600060016000858152602001908152602001600020905080600101544211610a62576040517f08c379a0000000000000000000000000000000000000000000000000000000008152600401610a599061179c565b60405180910390fd5b60008160060160006101000a81548160ff0219169083151502179055506000816005015490506000606460035483610a9a91906117bc565b610aa4919061182d565b905060008183610ab4919061185e565b9050600084600401548560030154119050600081610ad55785600a01610ada565b856009015b9050600082610aed578660040154610af3565b86600301545b90506000808211610b05576000610b12565b8185610b11919061182d565b5b905060005b8380549050811015610bba576000848281548110610b3857610b37611892565b5b9060005260206000200160009054906101000a900473ffffffffffffffffffffffffffffffffffffffff1690508073ffffffffffffffffffffffffffffffffffffffff166108fc849081150290604051600060405180830381858888f19350505050158015610bab573d6000803e3d6000fd5b50508080600101915050610b17565b508760000160009054906101000a900473ffffffffffffffffffffffffffffffffffffffff1673ffffffffffffffffffffffffffffffffffffffff166108fc879081150290604051600060405180830381858888f19350505050158015610c25573d6000803e3d6000fd5b508760000160009054906101000a900473ffffffffffffffffffffffffffffffffffffffff1673ffffffffffffffffffffffffffffffffffffffff168b7f4cbfa67f54cf0255619787991cb52aa46c0d3ee5cfabb0abf659f2b310f4748588604051610c919190610cc8565b60405180910390a35050505050505050505050565b60008054905090565b6000819050919050565b610cc281610caf565b82525050565b6000602082019050610cdd6000830184610cb9565b92915050565b6000604051905090565b600080fd5b600080fd5b600080fd5b600080fd5b6000601f19601f8301169050919050565b7f4e487b7100000000000000000000000000000000000000000000000000000000600052604160045260246000fd5b610d4a82610d01565b810181811067ffffffffffffffff82111715610d6957610d68610d12565b5b80604052505050565b6000610d7c610ce3565b9050610d888282610d41565b919050565b600067ffffffffffffffff821115610da857610da7610d12565b5b610db182610d01565b9050602081019050919050565b82818337600083830152505050565b6000610de0610ddb84610d8d565b610d72565b905082815260208101848484011115610dfc57610dfb610cfc565b5b610e07848285610dbe565b509392505050565b600082601f830112610e2457610e23610cf7565b5b8135610e34848260208601610dcd565b91505092915050565b600060208284031215610e5357610e52610ced565b5b600082013567ffffffffffffffff811115610e7157610e70610cf2565b5b610e7d84828501610e0f565b91505092915050565b610e8f81610caf565b8114610e9a57600080fd5b50565b600081359050610eac81610e86565b92915050565b600060208284031215610ec857610ec7610ced565b5b6000610ed684828501610e9d565b91505092915050565b600073ffffffffffffffffffffffffffffffffffffffff82169050919050565b6000610f0a82610edf565b9050919050565b610f1a81610eff565b82525050565b60008115159050919050565b610f3581610f20565b82525050565b600081519050919050565b600082825260208201905092915050565b60005b83811015610f75578082015181840152602081019050610f5a565b60008484015250505050565b6000610f8c82610f3b565b610f968185610f46565b9350610fa6818560208601610f57565b610faf81610d01565b840191505092915050565b600061010082019050610fd0600083018b610f11565b610fdd602083018a610cb9565b610fea6040830189610cb9565b610ff76060830188610cb9565b6110046080830187610cb9565b61101160a0830186610cb9565b61101e60c0830185610f2c565b81810360e08301526110308184610f81565b90509998505050505050505050565b61104881610eff565b811461105357600080fd5b50565b6000813590506110658161103f565b92915050565b61107481610f20565b811461107f57600080fd5b50565b6000813590506110918161106b565b92915050565b6000806000606084860312156110b0576110af610ced565b5b60006110be86828701611056565b93505060206110cf86828701610e9d565b92505060406110e086828701611082565b9150509250925092565b600060e0820190506110ff600083018a610f11565b61110c6020830189610cb9565b6111196040830188610cb9565b6111266060830187610cb9565b6111336080830186610cb9565b61114060a0830185610f2c565b81810360c08301526111528184610f81565b905098975050505050505050565b7f4e487b7100000000000000000000000000000000000000000000000000000000600052601160045260246000fd5b600061119a82610caf565b91506111a583610caf565b92508282019050808211156111bd576111bc611160565b5b92915050565b7f4e487b7100000000000000000000000000000000000000000000000000000000600052602260045260246000fd5b6000600282049050600182168061120a57607f821691505b60208210810361121d5761121c6111c3565b5b50919050565b60008190508160005260206000209050919050565b60006020601f8301049050919050565b600082821b905092915050565b6000600883026112857fffffffffffffffffffffffffffffffffffffffffffffffffffffffffffffffff82611248565b61128f8683611248565b95508019841693508086168417925050509392505050565b6000819050919050565b60006112cc6112c76112c284610caf565b6112a7565b610caf565b9050919050565b6000819050919050565b6112e6836112b1565b6112fa6112f2826112d3565b848454611255565b825550505050565b600090565b61130f611302565b61131a8184846112dd565b505050565b5b8181101561133e57611333600082611307565b600181019050611320565b5050565b601f8211156113835761135481611223565b61135d84611238565b8101602085101561136c578190505b61138061137885611238565b83018261131f565b50505b505050565b600082821c905092915050565b60006113a660001984600802611388565b1980831691505092915050565b60006113bf8383611395565b9150826002028217905092915050565b6113d882610f3b565b67ffffffffffffffff8111156113f1576113f0610d12565b5b6113fb82546111f2565b611406828285611342565b600060209050601f8311600181146114395760008415611427578287015190505b61143185826113b3565b865550611499565b601f19841661144786611223565b60005b8281101561146f5784890151825560018201915060208501945060208101905061144a565b8683101561148c5784890151611488601f891682611395565b8355505b6001600288020188555050505b505050505050565b60006040820190506114b66000830185610cb9565b81810360208301526114c88184610f81565b90509392505050565b60006114dc82610caf565b91507fffffffffffffffffffffffffffffffffffffffffffffffffffffffffffffffff820361150e5761150d611160565b5b600182019050919050565b7f4d61726b657420646f6573206e6f742065786973740000000000000000000000600082015250565b600061154f601583610f46565b915061155a82611519565b602082019050919050565b6000602082019050818103600083015261157e81611542565b9050919050565b7f4d61726b6574206973206e6f7420616374697665000000000000000000000000600082015250565b60006115bb601483610f46565b91506115c682611585565b602082019050919050565b600060208201905081810360008301526115ea816115ae565b9050919050565b7f496e636f727265637420766f74696e6720666565000000000000000000000000600082015250565b6000611627601483610f46565b9150611632826115f1565b602082019050919050565b600060208201905081810360008301526116568161161a565b9050919050565b7f596f75206861766520616c726561647920766f74656400000000000000000000600082015250565b6000611693601683610f46565b915061169e8261165d565b602082019050919050565b600060208201905081810360008301526116c281611686565b9050919050565b7f566f74696e6720706572696f6420656e64656400000000000000000000000000600082015250565b60006116ff601383610f46565b915061170a826116c9565b602082019050919050565b6000602082019050818103600083015261172e816116f2565b9050919050565b600060208201905061174a6000830184610f2c565b92915050565b7f4d61726b6574206973207374696c6c2061637469766500000000000000000000600082015250565b6000611786601683610f46565b915061179182611750565b602082019050919050565b600060208201905081810360008301526117b581611779565b9050919050565b60006117c782610caf565b91506117d283610caf565b92508282026117e081610caf565b915082820484148315176117f7576117f6611160565b5b5092915050565b7f4e487b7100000000000000000000000000000000000000000000000000000000600052601260045260246000fd5b600061183882610caf565b915061184383610caf565b925082611853576118526117fe565b5b828204905092915050565b600061186982610caf565b915061187483610caf565b925082820390508181111561188c5761188b611160565b5b92915050565b7f4e487b7100000000000000000000000000000000000000000000000000000000600052603260045260246000fdfea2646970667358221220d6e0221eb32bce8d0ed3ef7d9e1fde02ee96bc2d22b0b9c81290358c54c3d42264736f6c634300081b0033",
  "linkReferences": {},
  "deployedLinkReferences": {}
}